S01100006E616E6F426C696E6B2E7372656377
S11300000C9434000C943E000C943E000C943E007E
S11300100C943E000C943E000C943E000C943E0064
S11300200C943E000C943E000C943E000C943E0054
S11300300C943E000C943E000C943E000C943E0044
S11300400C943E000C943E000C943E000C943E0034
S11300500C943E000C943E000C943E000C943E0024
S11300600C943E000C943E0011241FBECFEFD8E048
S1130070DEBFCDBF0E9440000C945E000C940000D3
S1130080CF93DF931F92CDB7DEB7198284B180611D
S113009084B914BC85E085BD16BC83B1806183B985
S11300A008C0A89B06C089818F5F898381E085BBD6
S11300B016BC89818D33A8F31982EFCFF894FFCF52
S9030000FC
